:020000000029D5
:10000800A100030EA2000B100B1D0F280B11A30A51
:10001800B230810017280B1C17280B10061C20145F
:10002800861CA0141728220E8300A10E210E090099
:1000C80082073F3406345B344F3466346D347D34F4
:1000D80007347F346F3477347C3439345E34793480
:0200E800713471
:10020000031383160F1481130317831688018901C2
:10021000061486148B178B168B150B100313831281
:10022000850186018701880103138316161496142D
:10023000061486140313831685018701031383169E
:1002400015149514A001A301A401A501031383169D
:100250008112811101158114011403138312A3016A
:10026000B230810058215F2125080A128A116420CA
:10027000870041292308323C031D3A29A301A50A1E
:10028000322925080A3C031D3A293F308700A50181
:100290004929A40A24080A128A11642088005029D6
:1002A0002408063C031D3A293F308800A4013A295E
:1002B000201C0800850A051A8501A0010800A01C61
:0E02C000080085030F30051A8500A001080014
:04400E00D420FF3F7C
:00000001FF
