:020000000029D5
:10000800A100030EA2000B100B1D0F280B11A30A51
:10001800B230810017280B1C17280B10061C20145F
:10002800861CA0141728220E8300A10E210E090099
:10020000031383160F1481130317831688018901C2
:10021000061486148B178B168B150B100313831281
:10022000850186018701880103138316161496142D
:10023000061486140313831685018701031383169E
:1002400015149514A0010313831681128111011551
:100250008114011403138312A301B23081003821E9
:100260003F212308323C031D2F29870AA3012F2990
:10027000201C0800850A051A8501A0010800A01CA1
:0E028000080085030F30051A8500A001080054
:04400E00D420FF3F7C
:00000001FF
