:020000000029D5
:10000800A100030EA20003138312061C2014861CF1
:10001800A0140B100F28220E8300A10E210E090038
:10020000031383160F1481130317831688018901C2
:10021000061486148B178B150B100313831287019A
:100220008601031383161614961406148614870188
:100230000313831615149514A001202127211D29CD
:10024000201C0800870A071A8701A0010800A01CCB
:0E025000080087030F30071A8700A00108007E
:04400E00D420FF3F7C
:00000001FF
