:020000000029D5
:10000800A100030EA20003138312061C2014861CF1
:10001800A0140B100F28220E8300A10E210E090038
:10020000031383160F1481130317831688018901C2
:10021000061486148B178B168B150B100313831281
:10022000850186018601031383161614961406149D
:10023000861485010313831615149514A001222139
:1002400029211F29201C0800850A051A8501A00103
:100250000800A01C080085030F30051A8500A001C6
:02026000080094
:04400E00D420FF3F7C
:00000001FF
