:020000000029D5
:10000800031383120B100B1D0E280B11A10AB2301B
:1000180081002A28061C10282008003C031D1A28E5
:10002800861C870A061C22100B102A282008013C6F
:10003800031D2428861C8703061C22100B102A285F
:100048002008043C031D2A28A0012A28240E830026
:06005800A30E230E0900B7
:10020000031383160F178F120F160F140313831681
:100210008701051385130614861403138316161419
:100220009614031383161514951403178316880167
:1002300089010313831285018701A001A101A20195
:10024000031383168113811281110115811401108A
:10025000B23081002008003C031D312905178513A9
:100260002A292008013C031D3829051385172A294E
:100270002008023C031D45292108323C031D382972
:10028000A101870A051785172A292008033C031DA9
:100290002A292108323C031D4529A10187030513A2
:0402A00085132A296F
:04400E00D420FF3F7C
:00000001FF
