:020000000029D5
:10000800A100030EA2000B100B1D0F280B11A30A51
:10001800B230810017280B1C17280B10061C20145F
:10002800861CA0141728220E8300A10E210E090099
:10020000031383160F1481130317831688018901C2
:10021000061486148B178B168B150B100313831281
:10022000850186018701880103138316161496142D
:10023000061486140313831685018701031383169E
:1002400015149514A0010313831681128111011551
:100250008114011403138312A301A501A601A401B3
:10026000B230810061216821A40A2408A500A600FB
:100270000930A6050630A505A50E26080A128A1122
:1002800053210A128A1187004D2925080A128A1162
:1002900053210A128A1188004D292308323C031D7C
:1002A0003229A30132298A010A1409398207C0348C
:1002B000F934A434B034993492348234F83480342C
:1002C0009034201C0800850A051A8501A001080049
:1002D000A01C080085030F30051A8500A001080046
:04400E00D420FF3F7C
:00000001FF
